:10000E001604140212041402160317011602140623
:10001E001604140212041402160317011602140613
:10002E001604140212041402160317011602140603
:10003E0016041402120414021603170116021404F5
:10004E00060108010A020A0208020B020A0208024D
:10005E0008020802060106010B020A020802080441
:10006E00060108010A0600060A020D021202110418
:10007E0012041102120211010F010D040D020802E9
:10008E000B020B040A020A0401020B020A02080206
:10009E000A040D0206060004060208020603060103
:1000AE0006020D0206020B040A02080406020606E8
:1000BE000004060108010A020A0208020B020A02E3
:1000CE0008020802080206020B020A0208020804CD
:1000DE00060108010A0600060A020D0212021104A8
:1000EE0012021104120211010F010D040D02080279
:1000FE000B020B040A020A0401020B020A02080296
:10010E000A040D0206060004060106010802060492
:10011E0006020D0206020B020B010B010A01080179
:10012E00080406020603000300061B021902190248
:10013E001902170217021602140214021402000208
:10014E000D020D020B010B010B020B020A0208023B
:10015E00080406010501060300031B021902190219
:10016E0019021702170216021402140214020002D8
:10017E000A020A020A010A010A010A010A02080217
:10018E000A021404120212020002120211040F02D9
:10019E000F0600040F020F020D020B010B010B06DE
:1001AE000A010B010D0A00060A0108010A010801E5
:1001BE000A010B010D0200020B010D010F020002DC
:1001CE000F01110112020002140112010D040001AF
:1001DE0006010D020B020B020A040A010B010D04AB
:1001EE0000020A0108010A0108010A010B010D02B1
:1001FE0000020B010D010F0200020E010F01110290
:10020E0000030A011602160200010A011702160265
:10021E001402140412011101120200020D01120146
:10022E0014041202120200020D021404120212022F
:10023E0000020D01120114041202120200020D013D
:10024E00120114031601140212020002120211040A
:10025E000F020F0200020D020D040B020B020A0226
:10026E0008020A0600060A020B020A020B020A0222
:05027E000802060CFF60
:10037000203E0A0000FB23FB68FBAAFBE9FC23FCF0
:100380005BFC8FFCC0FCEFFD1BFD45FD6CFD91FD92
:10039000B4FDD5FDF4FE12FE2EFE47FE60FE78FE93
:1003A0008EFEA2FEB6FEC9FEDAFEEBFEFAFF09FFE4
:0103B0001735
:1003E600120417E50890000E93FFF460208F0905AC
:1003F60008E5089375F08AA4FFAEF012042E0508EE
:10040600C28C7F057E0012042ED28C80D6C28C80D0
:01041600FEE7
:03000B000203B23B
:1003B200C0E0C0D075D000C000C006E50925E02429
:1003C2000AF8E6FE08E64E6012E50925E0240AF87E
:1003D200E6FE08E6F58AEEF58CB2A5D006D000D08E
:0403E200D0D0E03265
:10042E00EF4E6010007D027CC7DCFEDDFCEF1F701E
:04043E00EF1E80EC41
:010442002297
:100417005389F0438901758A66758CFCC28DD28C2D
:07042700D2A9D2AFC2B92235
:10030F00E4F54820B0137F14FE12042E30B0FD7FA9
:10031F00147E0012042E75480120B1147F147E0044
:10032F0012042E30B1FD7F147E0012042E75480288
:10033F0020B2147F147E0012042E30B2FD7F147E83
:10034F000012042E75480320B3147F147E0012048C
:10035F002E30B3FD7F147E0012042E754804AF4873
:01036F00226B
:0300000002028376
:0C028300787FE4F6D8FD7581480202CABD
:10028F000203E6E493A3F8E493A34003F68001F29C
:10029F0008DFF48029E493A3F85407240CC8C33370
:1002AF00C4540F4420C8834004F456800146F6DF3F
:1002BF00E4800B0102040810204080900370E47E5C
:1002CF00019360BCA3FF543F30E509541FFEE49334
:1002DF00A360010ECF54C025E060A840B8E493A3FB
:1002EF00FAE493A3F8E493A3C8C582C8CAC583CA26
:1002FF00F0A3C8C582C8CAC583CADFE9DEE780BEDE
:0103B100004B
:00000001FF
