:03030300011F00D7
:10025E0012036E120362120323EF604B12036B8FB5
:10026E001EE51EB41603E4F51FE51EB40C03751F40
:10027E0001E51EB41803751F02E51EB45E03751F5B
:10028E0003E51F7004FF120371E51FB401057F32F1
:10029E00120371E51FB402057F4B120371E51FB403
:1002AE0003057F64120371E51FFD7C007F011201BF
:0302BE00F180A329
:0B033D00D288C289D2A8D2AFD2B82269
:100313005389F0438901E4F58AF58CC28DC28C229E
:0B034800AD07AC068C8CAF058F8A223D
:09035300AF8CEFFEAD8AEDFF2234
:06035C00EF24FF928C2249
:0603620012031302033D2B
:0D032300E50F6006E4F50F7F01227F002248
:0D033000E50D6006E4F50D7F01227F00223F
:03036800AF0C22B5
:03036B00AF0B22B3
:0300030002001EDA
:10001E00C0E0C0F0C083C082C0D075D000C000C0A8
:10002E0001C002C003C004C005C006C007E5081425
:10003E00601714605D2402600302014AE4FFFE12A1
:10004E0003487F0112035C80431203538E098F0A0B
:10005E00E4FFFE120348D3E50A94A6E509942E4068
:10006E0010E50A948EE509943250067508020201D5
:10007E004AD3E50A948CE50994264010E50A947457
:10008E00E509942A5006750D010201427508010218
:10009E00014A1203538E098F0AE4FFFE120348D35E
:1000AE00E50A9414E5099402402BE50A94FCE5094F
:1000BE0094055021E50E131313541F2410F8C0009D
:1000CE00E6FFE50E5407FEF87401088002C333D82C
:1000DE00FCF45F8033D3E50A9426E5099406402F9D
:1000EE00E50A940EE509940A5025E50E13131354F0
:1000FE001F2410F8C000E6FFE50E5407FEF8740149
:10010E00088002C333D8FC4FD000F6050E8006756A
:10011E000E00750801E50EC394204020750E00E513
:10012E0011F4B5100FE513F4F512600885100CF5F7
:10013E000B750F01E4FF12035C750800D007D006A3
:10014E00D005D004D003D002D001D000D0D0D082C0
:07015E00D083D0F0D0E032A5
:1002EC0053890F438910758B9C758DFFC28FD28EED
:0702FC00D2ABD2AFC2BB225E
:0C0306000A143F065B4F666D7D077F6F99
:1001F100EF14B40800505490020675F003A4C583AF
:1002010025F0C5837302021E0202220202260202A7
:100211002A02022E02023602023E020246D2A480C5
:100221000ED2A48012D2A48016D2A4801AC2A4D263
:10023100A3D2A28016C2A4D2A3C2A2800EC2A4C21B
:10024100A3D2A28006C2A4C2A3C2A274142DF8E64E
:0D025100F5807F017E00120006E4F580229A
:03036E000202EC9C
:030371008F2022B8
:03001B000202C11D
:1002C100C0E0C0F0C0D0758B9C758DFF0521E52184
:1002D10075F0648485F021E521C395205004D29006
:0B02E1008002C290D0D0D0F0D0E032FC
:10000600EF4E6010007D027CC7DCFEDDFCEF1F704A
:04001600EF1E80EC6D
:01001A0022C3
:0300000002016595
:0C016500787FE4F6D8FD7581210201AC22
:1001710002025EE493A3F8E493A34003F68001F244
:1001810008DFF48029E493A3F85407240CC8C3338F
:10019100C4540F4420C8834004F456800146F6DF5E
:1001A100E4800B0102040810204080900303E47EE8
:1001B100019360BCA3FF543F30E509541FFEE49353
:1001C100A360010ECF54C025E060A840B8E493A31A
:1001D100FAE493A3F8E493A3C8C582C8CAC583CA45
:1001E100F0A3C8C582C8CAC583CADFE9DEE780BEFD
:0103120000EA
:00000001FF
