:100BA700202000200020202D20202D202000202084
:070BB7003A20203A20200043
:1007ED001206D4E518FB3395E0FA750C027D017FF6
:1007FD0001120B6FE519FB3395E0FA750C027D04C0
:10080D007F01120B6FE51AFB3395E0FA750C027D33
:10081D00077F01120B6FE51BFB3395E0FA750C0298
:10082D007D017F02120B6FE51CFB3395E0FA750C11
:10083D00027D047F02120B6FE51DFB3395E0FA7507
:10084D000C027D077F02120B6FE51EFB3395E0FA5C
:0A085D00750C017D107F02020B6F85
:10000E00E524B4010B0521E52175F0078485F02167
:10001E00E524640360030200F074182521F806D36A
:10002E00E518648094E34003E4F518E519B40D0374
:10003E00751901E51964016023E5196403601DE576
:10004E001964056017E51964076011E51964086005
:10005E000BE519640A6005E519B40C0BD3E51A64B7
:10006E0080949F404D8048E51964046011E5196441
:10007E0006600BE51964096005E519B40B0BD3E5B1
:10008E001A6480949E402B8026E519B40224E5184C
:10009E0075F00412061EAFF0EF700BD3E51A6480F4
:1000AE00949D400E8009D3E51A6480949C4003759C
:1000BE001A01D3E51B648094974003E4F51BD3E546
:1000CE001C648094BB4003E4F51CD3E51D6480944E
:1000DE00BB4003E4F51DD3E51E6480948740037591
:1000EE001E01E524640460030201F774182521F84B
:1000FE0016C3E518648094805003751863C3E51920
:10010E0064809480500375190CE51964016023E531
:10011E00196403601DE51964056017E5196407602D
:10012E0011E5196408600BE519640A6005E519B458
:10013E000C17C3E51A648094815003751A1FD3E51A
:10014E001A6480949F4072806DE51964046011E515
:10015E00196406600BE51964096005E519B40B17FF
:10016E00C3E51A648094815003751A1ED3E51A6490
:10017E0080949E4044803FE5196402703CE51875FA
:10018E00F00412061EAFF0EF7017C3E51A648094E8
:10019E00815003751A1DD3E51A6480949D401A8010
:1001AE0015C3E51A648094815003751A1CD3E51AA1
:1001BE006480949C4003751A01C3E51B648094808F
:1001CE005003751B17C3E51C648094805003751C87
:1001DE003BC3E51D648094805003751D3BC3E51E33
:1001EE00648094815003751E07E5217014E523B4D5
:1001FE00010F7BFF7A0B79A77D017F01120B0C801B
:10020E0011E518FB3395E0FA750C027D017F0112A2
:10021E000B6FE521B40114E523B4010F7BFF7A0BBC
:10022E0079A77D047F01120B0C8011E519FB339524
:10023E00E0FA750C027D047F01120B6FE521B4020A
:10024E0014E523B4010F7BFF7A0B79A77D077F019D
:10025E00120B0C8011E51AFB3395E0FA750C027D3A
:10026E00077F01120B6FE521B40314E523B4010FD0
:10027E007BFF7A0B79A77D017F02120B0C8011E5B3
:10028E001BFB3395E0FA750C027D017F02120B6F9A
:10029E00E521B40414E523B4010F7BFF7A0B79A793
:1002AE007D047F02120B0C8011E51CFB3395E0FAE6
:1002BE00750C027D047F02120B6FE521B40514E567
:1002CE0023B4010F7BFF7A0B79A77D077F02120BF8
:1002DE000C8011E51DFB3395E0FA750C027D077F4E
:1002EE0002120B6FE521B40612E523B4010D7BFF5C
:1002FE007A0B79AA7D107F02020B0CE51EFB33955B
:0D030E00E0FA750C017D107F02120B6F22CA
:10092400120C007BFF7A0B79AC7D017F01120B0C5A
:100934007BFF7A0B79B57D017F02120B0C120C47F9
:100944001204A4120BBE1208678F24E524B4021407
:10095400E5227005752201800BE522B40106E4F559
:10096400221204A4E5221460080470DA1207ED8050
:06097400D512000E80D038
:03000B00020A02E4
:090A0200C0E0C0D075D000C007AF
:100A0B00758A18758CFC0520E5207002051FC394B0
:100A1B00F4E51F94014012751F00752000E523704B
:090A2B00047F0180027F008F238B
:070A3400D007D0D0D0E03262
:060C1400C2A58F80D2A7EB
:090C1A00007F027EC7DEFEDFFC54
:010C230022AE
:0A0C2400C2A6120C14C2A7020C1A9B
:100B5100CFCDCFCECCCE12067F7C007D0A12067F90
:040B6100ED2430FF50
:0A0B6500D2A6120C14C2A7020C1A4B
:100BD500AE07BE0104ED148006BE0209ED243F44B4
:060BE50080FF120C242227
:100C00007F38120C247F0C120C247F06120C247FD8
:040C100001020C24AD
:0A0C2E00AC03120BD5AF04020B65F6
:060B0C008B088A09890A2A
:100B1200120BD5E4FDAB08AA09A90A8D82758300E0
:0C0B2200120640FF6006120B650D80E912
:010B2E0022A4
:0C0AAC007F0AEA24FFFDE434FFFC7E001A
:080AB8008E0D8F0E8C0F8D10C6
:100AC0007F017E00E4FBEBC39510E50F6480F874B2
:0E0AD0008098500AAC0DAD0E12066D0B80E83A
:010ADE0022F5
:040B6F008A0A8B0B58
:100B7300120BD5AA0CEAD39400400D120AACAC0AAE
:080B8300AD0B120B511A80EDBD
:010B8B002247
:1009C800120BD5C3EA64809480400B7F2B120B6511
:1009D8008A168B17800E7F2D120B65C3E49BF517C3
:1009E800E49AF516AA15EAD39400400D120AACACA5
:0909F80016AD17120B511A80ED27
:010A010022D2
:040A3B008A278B2853
:100A3F00120BD5AA29EAD3940040297F10120AAECF
:100A4F00AC27AD28CFCDCFCECCCE12067FEF540F33
:100A5F00FEC3940AEE5004243080022437FF120B99
:040A6F00651A80D1B3
:010A73002260
:040A74008A2C8B2D10
:100A7800120BD5AA2EEAD394004028EA24FFFDE4FD
:100A880034FFFC7F027E00120AB8AC2CAD2DCFCD0E
:100A9800CFCECCCE12067FEF54012430FF120B6567
:030AA8001A80D2DF
:010AAB002228
:100BEB00EF4E6010007D027CC7DCFEDDFCEF1F705A
:040BFB00EF1E80EC7D
:010BFF0022D3
:10031B00E4F52F7590FFC2932097137F14FE120BF9
:10032B00EB3097FD7F147E00120BEB752F0120969F
:10033B00147F147E00120BEB3096FD7F147E00129F
:10034B000BEB752F052095147F147E00120BEB30F1
:10035B0095FD7F147E00120BEB752F092094147FF3
:10036B00147E00120BEB3094FD7F147E00120BEB0E
:10037B00752F0D7590FFC2922097147F147E00127B
:10038B000BEB3097FD7F147E00120BEB752F0220C9
:10039B0096147F147E00120BEB3096FD7F147E00BB
:1003AB00120BEB752F062095147F147E00120BEBAE
:1003BB003095FD7F147E00120BEB752F0A209414E1
:1003CB007F147E00120BEB3094FD7F147E00120B1A
:1003DB00EB752F0E7590FFC2912097147F147E0042
:1003EB00120BEB3097FD7F147E00120BEB752F0376
:1003FB002096147F147E00120BEB3096FD7F147E3B
:10040B0000120BEB752F072095147F147E00120B37
:10041B00EB3095FD7F147E00120BEB752F0B2094A8
:10042B00147F147E00120BEB3094FD7F147E0012B0
:10043B000BEB752F0F7590FFC2902097147F147ED6
:10044B0000120BEB3097FD7F147E00120BEB752F18
:10045B00042096147F147E00120BEB3096FD7F1454
:10046B007E00120BEB752F082095147F147E001263
:10047B000BEB3095FD7F147E00120BEB752F0C20D0
:10048B0094147F147E00120BEB3094FD7F147E00CE
:08049B00120BEB752F10AF2FBF
:0104A3002236
:100BBE005389F0438901758A66758CFCC28DD28C7F
:070BCE00D2A9D2AFC2B92287
:10086700E4F50820B0137F14FE120BEB30B0FD7FC8
:10087700147E00120BEB75080120B1147F147E0063
:10088700120BEB30B1FD7F147E00120BEB750802E3
:1008970020B2147F147E00120BEB30B2FD7F147E62
:1008A70000120BEB75080320B3147F147E00120BA4
:1008B700EB30B3FD7F147E00120BEB750804AF0815
:0108C700220E
:100B8C0043878075985053890F438920758BF47572
:0B0B9C008DF4C2ABD28ED2AFD2AC22DF
:080003008F993099FDC299228A
:020ADF00AD0761
:100AE100E4FB7E007480A803088006CEA2E713CE43
:100AF10013D8F8FFEDF582EF558224FF92B4D2B6F8
:0A0B0100C2B60BBB08DCD2B5C2B5CA
:010B0B0022C7
:100B2F00AA07AF05120ADFAF02A807748008800278
:100B3F00C313D8FCF4F5807F017E00120BEB758098
:020B4F00FF2283
:050C4200C2B6C2B5229C
:090C38000718180C081514380700
:050C4700C2B5C2B62297
:0508C8002DFDEE3CFCDB
:0608CD008C088D09AB0749
:1008D300D2B5E4FD7E007401A805088005C333CEBC
:1008E30033CED8F9FFEBF582EF558224FF92B4D2D1
:1008F300B6C2B60DBD08DDE4FD7E007401A805088F
:100903008005C333CE33CED8F9FFE5085EFEE50993
:100913005F4E24FF92B4D2B6C2B60DBD08DBC2B59A
:0109230022B1
:02097A00AD07C7
:10097C00E4F9430501D2B5FB7E007401A80308809D
:10098C0005C333CE33CED8F9FFEDF582EF55822473
:10099C00FF92B4C2B6D2B60BBB08DDE4FBD2B6C232
:1009AC00B630B40DA8037401088002C333D8FC42DE
:0B09BC00010BBB08E8C2B5C2B4AF01DC
:0109C700220D
:1004A400E4FDFC7F8E1208CDE51875F00A12061ED5
:1004B400FF3395E0FEEFC4F8540FC868FFEEC45450
:1004C400F048FEE51875F00A12061EADF0ED3395FE
:1004D400E0FCEF7F8C1208C8E51975F00A12061EBD
:1004E400FF3395E0FEEFC4F8540FC868FFEEC45420
:1004F400F048FEE51975F00A12061EADF0ED3395CD
:10050400E0FCEF7F881208C8E51A75F00A12061E8F
:10051400FF3395E0FEEFC4F8540FC868FFEEC454EF
:10052400F048FEE51A75F00A12061EADF0ED33959B
:10053400E0FCEF2DFDEE3CFC7F861208CDE51B753B
:10054400F00A12061EFF3395E0FEEFC4F8540FC8FC
:1005540068FFEEC454F048FEE51B75F00A12061E4F
:10056400ADF0ED3395E0FCEF2DFDEE3CFC7F841205
:1005740008CDE51C75F00A12061EFF3395E0FEEF68
:10058400C4F8540FC868FFEEC454F048FEE51C7567
:10059400F00A12061EADF0ED3395E0FCEF2DFDEEF2
:1005A4003CFC7F821208CDE51D75F00A12061EFF81
:1005B4003395E0FEEFC4F8540FC868FFEEC454F05E
:1005C40048FEE51D75F00A12061EADF0ED3395E008
:1005D400FCEF2DFDEE3CFC7F801208CDE51E75F08E
:1005E4000A12061EFF3395E0FEEFC4F8540FC868E4
:1005F400FFEEC454F048FEE51E75F00A12061EAD67
:10060400F0ED3395E0FCEF2DFDEE3CFC7F8A120803
:0A061400CD7D807C007F8E0208CDB2
:1006D4007F8C12097AEFC4540F75F00AA4FEEF540C
:1006E4000F2EF5187F8812097AEFC4540F75F00A9B
:1006F400A4FEEF540F2EF5197F8612097AEFC45425
:100704000F75F00AA4FEEF540F2EF51A7F84120918
:100714007AEFC4540F75F00AA4FEEF540F2EF51BA4
:100724007F8212097AEFC4540F75F00AA4FEEF54C5
:100734000F2EF51C7F8012097AEFC4540F75F00A4E
:10074400A4FEEF540F2EF51D7F8A12097AEFC454CC
:0C0754000F75F00AA4FEEF540F2EF51EE6
:010760002276
:0300000002076193
:0C076100787FE4F6D8FD75812F0207A810
:10061E00C2D530F707B2D563F0FF05F030E70CB264
:10062E00D5F4048463F0FF05F080018430D502F424
:02063E00042294
:10064000BB010CE58229F582E5833AF583E022506F
:1006500006E92582F8E622BBFE06E92582F8E222B9
:0D066000E58229F582E5833AF583E49322D3
:10066D00EF8DF0A4A8F0CF8CF0A428CE8DF0A42EA1
:02067D00FE225B
:10067F00BC000BBE0029EF8DF084FFADF022E4CC5F
:10068F00F875F008EF2FFFEE33FEEC33FCEE9DEC28
:10069F00984005FCEE9DFE0FD5F0E9E4CEFD22ED6E
:1006AF00F8F5F0EE8420D21CFEADF075F008EF2FB8
:1006BF00FFED33FD4007985006D5F0F222C398FDA9
:0506CF000FD5F0EA2246
:10076D00020924E493A3F8E493A34003F68001F275
:10077D0008DFF48029E493A3F85407240CC8C3338D
:10078D00C4540F4420C8834004F456800146F6DF5C
:10079D00E4800B0102040810204080900C38E47EA8
:1007AD00019360BCA3FF543F30E509541FFEE49351
:1007BD00A360010ECF54C025E060A840B8E493A318
:1007CD00FAE493A3F8E493A3C8C582C8CAC583CA43
:1007DD00F0A3C8C582C8CAC583CADFE9DEE780BEFB
:010C410000B2
:00000001FF
