:1009AD00543A0054483A00544C3A00573A480057CC
:0709BD003A4C00202020004D
:10046D001209DB120A337BFF7A0979AD7D017F0119
:10047D001208C17BDF7D0A7F01120A8E7B437D0B43
:10048D007F01120A8E7BFF7A0979B07D017F0212FE
:10049D0008C17BFF7A0979B47D097F021208C1E496
:1004AD00FF1208198F1A7F011208198F15D3E51A3B
:1004BD00648094FD5015C3E51564809449400CE5A6
:1004CD00156480F8E51A6480985006751A1BE4F5DA
:1004DD0015120A6B7FE87E03120A1E120AB58F1BD6
:1004ED00120A6B1208498F198E188D178C16E51B81
:1004FD00607424FE601A1460281460362403704062
:10050D00051AD3E51A648094FD4035751A7D803047
:10051D00C3E5156480F8E51A6480984023151A80A8
:10052D001FC3E5156480F8E51A648098401205151F
:10053D00800E1515C3E5156480944950037515C9D2
:10054D00E51AFD3395E0FCE4FF12089D7F057E0062
:10055D00120A1EE515FD3395E0FC7F0112089D7F03
:10056D00057E00120A1EAC1AEC120248AB19AA182D
:10057D00A917A8161201B4600A40087BFF7A097901
:10058D00B8801FAC15EC120248AB19AA18A917A810
:10059D00161201B47BFF50067A0979BC80047A09E2
:1005AD0079C07D0E7F011208C1E4FFFEFDFCAB1981
:1005BD00AA18A917A8161201B45017AF19AE18AD85
:1005CD0017AC1612022D8F198E188D178C167B2DC8
:1005DD0080027B2B7D037F01120A8EAF19AE18AD01
:1005ED0017AC1612027CAB07AA06750C037D047FAF
:1005FD000112093EE4FFFE7DC87C42AB19AA18A981
:10060D0017A81612000E12027CE47B64FAF9F81298
:10061D0003CD750C027D087F0112093E7B2E7D07EF
:10062D007F01120A8EE51AFB3395E0FA750C037DF6
:10063D00047F0212073BE515FB3395E0FA750C03B9
:0A064D007D0C7F0212073B0204E857
:03000B000206E307
:1006E300C0E0C0F0C083C082C0D075D000C000C0DD
:0D06F30001C002C003C004C005C006C0075E
:10070000758A18758CFC0514E51470020513C394E2
:1007100014E51394004009751300751400120A477C
:10072000D007D006D005D004D003D002D001D0002D
:0B073000D0D0D082D083D0F0D0E032D7
:060A5B00C2A58F80D2A7A6
:090A6100007F027EC7DEFEDFFC0F
:010A6A002269
:0A0A8400C2A6120A5BC2A7020A61B3
:1008E400CFCDCFCECCCE12033C7C007D0A12033C8C
:0408F400ED2430FFC0
:0A08F800D2A6120A5BC2A7020A6131
:1009F200AE07BE0104ED148006BE0209ED243F4499
:060A020080FF120A8422AD
:100A33007F38120A847F0C120A847F06120A847F8D
:040A430001020A841E
:0A0A8E00AC031209F2AF040208F8ED
:0608C1008B088A09890A78
:1008C7001209F2E4FDAB08AA09A90A8D8275830013
:0C08D7001202FDFF60061208F80D80E917
:0108E30022F2
:0C07E6007F0AEA24FFFDE434FFFC7E00E3
:0807F2008E0F8F108C118D1287
:1007FA007F017E00E4FBEBC39512E5116480F87477
:0E080A008098500AAC0FAD1012032A0B80E844
:0108180022BD
:04093E008A0A8B0B8B
:100942001209F2AA0CEAD39400400D1207E6AC0A8F
:08095200AD0B1208E41A80ED60
:01095A00227A
:10073B001209F2C3EA64809480400B7F2B1208F8F5
:10074B008A0D8B0E800E7F2D1208F8C3E49BF50EDD
:10075B00E49AF50DAA0CEAD39400400D1207E6AC0F
:09076B000DAD0E1208E41A80ED38
:010774002262
:040775008A1E8B1F2E
:100779001209F2AA20EAD3940040297F101207E84F
:10078900AC1EAD1FCFCDCFCECCCE12033CEF540F54
:10079900FEC3940AEE5004243080022437FF120865
:0407A900F81A80D1E9
:0107AD002229
:0407AE008A238B24EB
:1007B2001209F2AA25EAD394004028EA24FFFDE4B4
:1007C20034FFFC7F027E001207F2AC23AD24CFCDB2
:1007D200CFCECCCE12033CEF54012430FF1208F8E6
:0307E2001A80D2A8
:0107E50022F1
:10090200C2AFD2B7C2B77FE6DFFED2B77F20DFFE2B
:0D091200A2B7E433FE7FE6DFFED2AFAF06F2
:01091F0022B5
:100A0800C2AFC2B77E04DEFEEF24FF92B77E16DEC9
:050A1800FED2B7D2AFD1
:010A1D0022B6
:10097800C2AFC2B77F02DFFED2B77F02DFFEA2B7E7
:0B098800E433FE7F16DFFED2AFAF06A7
:010993002241
:02099400AD07AD
:10099600E4FCA8047401088002C333D8FC5DFF128E
:0609A6000A080CBC08EC7D
:0109AC002228
:10095B00E4FDFC120978EF600DA804740108800215
:0C096B00C333D8FC42050CBC08E9AF0502
:01097700225D
:0D0A6B001209027FCC1209947F4402099405
:100849001209027FCC1209947FBE12099412095B26
:100859008F0812095BEFFEE508FFFDAC06EC1202FA
:0B08690043E4FBFA798078410201179C
:100A1E00EF4E6010007D027CC7DCFEDDFCEF1F7028
:040A2E00EF1E80EC4B
:010A320022A1
:10089D008F088C098D0A120AAC7FA0120874120AF7
:1008AD0078AF08120874120A78AF0A120874120A87
:0408BD0078020003BA
:020819008F0846
:10081B00120AAC7FA0120874120A78AF081208747F
:10082B00120A78120AAC7FA1120874120A78120904
:0D083B00208F097F01120A98120003AF09F7
:01084800228D
:090AAC00D2A0D2A1C2A0C2A12275
:07000300C2A0D2A1D2A0228D
:02087400AD07CE
:10087600E4FB7E007480A803088006CEA2E713CEB0
:1008860013D8F8FFEDF582EF558224FF92A0D2A18E
:06089600C2A10BBB08DC4F
:01089C002239
:10092000E4FFD2A0FED2A130A00DA80674800880FA
:0D09300002C313D8FC4207C2A10EBE08E8A6
:01093D002297
:0A0A9800EF24FF92A0D2A1C2A12218
:0B0A7800D2A0D2A1A2A0E433FFC2A1D3
:010A83002250
:090AA200012800012600012700D3
:050AB500AF28E4F52864
:010ABA002219
:1009C400E4FF20B0027F0220B1027F0120B2027F47
:0609D4000320B3027F04C2
:0109DA0022FA
:100A47008526271209C48F26E5276007E526700348
:030A5700852728C8
:010A5A002279
:1009DB005389F0438901758A66758CFCC28DD28C64
:0709EB00D2A9D2AFC2B9226C
:10000E00EC4D6011E8497017ED33EC3304600DE4EC
:10001E00FCFFFEFD22E933E8330470F80202E81219
:10002E0002B358046009E4CC24815006285009021A
:10003E0002F22840030202EFC0E0EB4A7044B9809E
:10004E0006D0E0FB0202DEEF4E701CBD8008EBFF17
:10005E00EAFEE9FD80EBE98DF0A4FEE5F00200F783
:10006E00E9CDF9EAFEEBFFEF89F0A4FCE5F0CE89CD
:10007E00F0A42EFFE435F0CD89F0A42DFEE435F08A
:10008E008067EF4E7005BD80D780C3EF8BF0A4ACB8
:10009E00F0EE8BF0A42CFCE435F0F8EF8AF0A42CF3
:1000AE00E5F038FCE433CB8DF0A42CFCE5F03BF806
:1000BE00EE8AF0A42CFCE5F038F8E433CF89F0A4F6
:1000CE002CFCE5F038CF3400CE89F0A42FFFE5F0FC
:1000DE003EFEE433C98DF0A42EFEE5F039CD8AF054
:1000EE00A42FFFE5F03EFEE43DFD33D0E0FB5007CC
:1000FE000BBB000F0202F2EC2CFCEF33FFEE33FED3
:06010E00ED33FD0202CA00
:100114000202F2EC5D046005E8590470030202E88F
:100124001202B3580460F6EC4860F2EC7004FDFE71
:10013400FF22C860DB2481C85009C39860025006BE
:100144000202EF9850CAF582E9294B4A7005AB8246
:100154000202DE75F0007C1A7880C3EF9BEE9AED04
:1001640099400DC3EF9BFFEE9AFEED99FDE842F036
:10017400DC23ACF0D0E0FFD0E0FED0E0FDAB822089
:10018400E7101BEB60BAEC2CFCEF33FFEE33FEED13
:1001940033FD0202CAE803F830E705C0F075F00049
:1001A400EF2FFFEE33FEED33FD40B830E7C280AAF7
:1001B40074F8CC6480CCC86480C8F58204604FC3F2
:1001C400EB9FF5F0EA9E42F0E99D42F0E89C45F091
:1001D400603C501DE5825FFFE582D313CB5BCBF41B
:1001E4002B5582FB50280ABA002409B90020088044
:1001F4001DE5825BFBE582D313CF5FCFF4C3132FDE
:100204005582FF50090EBE00050DBD00010CC3EB65
:100214009FF5F0EA9E42F0E99D42F0E89C45F060CB
:0902240007CC4820E701B3EC22ED
:10022D00ED33EC33600A047003BD8004ECB2E7FCDF
:01023D00229E
:10023E0075F020800E75F010800575F0087D007E3B
:10024E00007F003392D530D50312045FEC3340109B
:10025E00EF33FFEE33FEED33FDEC33FCD5F0ED2244
:0E026E00E5F0247EA2D513CC92E7CDCEFF2280
:10027C00EDD2E7CD33EC3392D524814006E4FFFE7A
:10028C00FDFC22FCE4CFCECDCC24E0501174FF80D9
:10029C00EDC3CC13CCCD13CDCE13CECF13CF047076
:0702AC00F030D5DE02045F13
:1002B300E9D2E7C933E833F892D5EDD2E7CD33EC91
:0702C30033FC5002B2D5220A
:1002CA00EC30E7100FBF000C0EBE00080DBD000495
:1002DA000BEB6014A2D5EB13FCED92E7FD2274FF41
:1002EA00FCFDFEFF22E480F8A2D574FF13FC7D809A
:0302FA00E480EFAE
:030000000206579E
:0C065700787FE4F6D8FD75812802069E2D
:1002FD00BB010CE58229F582E5833AF583E02250B6
:10030D0006E92582F8E622BBFE06E92582F8E222FF
:0D031D00E58229F582E5833AF583E4932219
:10032A00EF8DF0A4A8F0CF8CF0A428CE8DF0A42EE7
:02033A00FE22A1
:10033C00BC000BBE0029EF8DF084FFADF022E4CCA5
:10034C00F875F008EF2FFFEE33FEEC33FCEE9DEC6E
:10035C00984005FCEE9DFE0FD5F0E9E4CEFD22EDB4
:10036C00F8F5F0EE8420D21CFEADF075F008EF2FFE
:10037C00FFED33FD4007985006D5F0F222C398FDEF
:05038C000FD5F0EA228C
:1003910075F008758200EF2FFFEE33FECD33CDCC23
:1003A10033CCC58233C5829BED9AEC99E5829840A6
:1003B1000CF582EE9BFEED9AFDEC99FC0FD5F0D683
:1003C100E4CEFBE4CDFAE4CCF9A88222B800C1B9AD
:1003D1000059BA002DEC8BF084CFCECDFCE5F0CBEB
:1003E100F97818EF2FFFEE33FEED33FDEC33FCEB24
:1003F10033FB10D703994004EB99FB0FD8E5E4F9DF
:10040100FA227818EF2FFFEE33FEED33FDEC33FCCB
:10041100C933C910D7059BE99A4007EC9BFCE99ABF
:10042100F90FD8E0E4C9FAE4CCFB2275F010EF2F04
:10043100FFEE33FEED33FDCC33CCC833C810D70704
:100441009BEC9AE899400AED9BFDEC9AFCE899F83F
:0E0451000FD5F0DAE4CDFBE4CCFAE4C8F922D2
:0E045F00C3E49FFFE49EFEE49DFDE49CFC22AE
:1006630002046DE493A3F8E493A34003F68001F23C
:1006730008DFF48029E493A3F85407240CC8C33398
:10068300C4540F4420C8834004F456800146F6DF67
:10069300E4800B0102040810204080900AA2E47E4B
:1006A300019360BCA3FF543F30E509541FFEE4935C
:1006B300A360010ECF54C025E060A840B8E493A323
:1006C300FAE493A3F8E493A3C8C582C8CAC583CA4E
:1006D300F0A3C8C582C8CAC583CADFE9DEE780BE06
:010AAB00004A
:00000001FF
